{
 "_format": "hh-sol-artifact-1",
 "contractName": "CryptoDevs",
 "sourceName": "contracts/CryptoDevs.sol",
 "abi": [
  {
   "inputs": [
    {
     "internalType": "string",
     "name": "baseURI",
     "type": "string"
    },
    {
     "internalType": "address",
     "name": "whitelistContract",
     "type": "address"
    }
   ],
   "stateMutability": "nonpayable",
   "type": "constructor"
  },
  {
   "anonymous": false,
   "inputs": [
    {
     "indexed": true,
     "internalType": "address",
     "name": "owner",
     "type": "address"
    },
    {
     "indexed": true,
     "internalType": "address",
     "name": "approved",
     "type": "address"
    },
    {
     "indexed": true,
     "internalType": "uint256",
     "name": "tokenId",
     "type": "uint256"
    }
   ],
   "name": "Approval",
   "type": "event"
  },
  {
   "anonymous": false,
   "inputs": [
    {
     "indexed": true,
     "internalType": "address",
     "name": "owner",
     "type": "address"
    },
    {
     "indexed": true,
     "internalType": "address",
     "name": "operator",
     "type": "address"
    },
    {
     "indexed": false,
     "internalType": "bool",
     "name": "approved",
     "type": "bool"
    }
   ],
   "name": "ApprovalForAll",
   "type": "event"
  },
  {
   "anonymous": false,
   "inputs": [
    {
     "indexed": true,
     "internalType": "address",
     "name": "previousOwner",
     "type": "address"
    },
    {
     "indexed": true,
     "internalType": "address",
     "name": "newOwner",
     "type": "address"
    }
   ],
   "name": "OwnershipTransferred",
   "type": "event"
  },
  {
   "anonymous": false,
   "inputs": [
    {
     "indexed": true,
     "internalType": "address",
     "name": "from",
     "type": "address"
    },
    {
     "indexed": true,
     "internalType": "address",
     "name": "to",
     "type": "address"
    },
    {
     "indexed": true,
     "internalType": "uint256",
     "name": "tokenId",
     "type": "uint256"
    }
   ],
   "name": "Transfer",
   "type": "event"
  },
  {
   "stateMutability": "payable",
   "type": "fallback"
  },
  {
   "inputs": [],
   "name": "_paused",
   "outputs": [
    {
     "internalType": "bool",
     "name": "",
     "type": "bool"
    }
   ],
   "stateMutability": "view",
   "type": "function"
  },
  {
   "inputs": [],
   "name": "_price",
   "outputs": [
    {
     "internalType": "uint256",
     "name": "",
     "type": "uint256"
    }
   ],
   "stateMutability": "view",
   "type": "function"
  },
  {
   "inputs": [
    {
     "internalType": "address",
     "name": "to",
     "type": "address"
    },
    {
     "internalType": "uint256",
     "name": "tokenId",
     "type": "uint256"
    }
   ],
   "name": "approve",
   "outputs": [],
   "stateMutability": "nonpayable",
   "type": "function"
  },
  {
   "inputs": [
    {
     "internalType": "address",
     "name": "owner",
     "type": "address"
    }
   ],
   "name": "balanceOf",
   "outputs": [
    {
     "internalType": "uint256",
     "name": "",
     "type": "uint256"
    }
   ],
   "stateMutability": "view",
   "type": "function"
  },
  {
   "inputs": [
    {
     "internalType": "uint256",
     "name": "tokenId",
     "type": "uint256"
    }
   ],
   "name": "getApproved",
   "outputs": [
    {
     "internalType": "address",
     "name": "",
     "type": "address"
    }
   ],
   "stateMutability": "view",
   "type": "function"
  },
  {
   "inputs": [
    {
     "internalType": "address",
     "name": "owner",
     "type": "address"
    },
    {
     "internalType": "address",
     "name": "operator",
     "type": "address"
    }
   ],
   "name": "isApprovedForAll",
   "outputs": [
    {
     "internalType": "bool",
     "name": "",
     "type": "bool"
    }
   ],
   "stateMutability": "view",
   "type": "function"
  },
  {
   "inputs": [],
   "name": "maxTokenIds",
   "outputs": [
    {
     "internalType": "uint256",
     "name": "",
     "type": "uint256"
    }
   ],
   "stateMutability": "view",
   "type": "function"
  },
  {
   "inputs": [],
   "name": "mint",
   "outputs": [],
   "stateMutability": "payable",
   "type": "function"
  },
  {
   "inputs": [],
   "name": "name",
   "outputs": [
    {
     "internalType": "string",
     "name": "",
     "type": "string"
    }
   ],
   "stateMutability": "view",
   "type": "function"
  },
  {
   "inputs": [],
   "name": "owner",
   "outputs": [
    {
     "internalType": "address",
     "name": "",
     "type": "address"
    }
   ],
   "stateMutability": "view",
   "type": "function"
  },
  {
   "inputs": [
    {
     "internalType": "uint256",
     "name": "tokenId",
     "type": "uint256"
    }
   ],
   "name": "ownerOf",
   "outputs": [
    {
     "internalType": "address",
     "name": "",
     "type": "address"
    }
   ],
   "stateMutability": "view",
   "type": "function"
  },
  {
   "inputs": [],
   "name": "presaleEnded",
   "outputs": [
    {
     "internalType": "uint256",
     "name": "",
     "type": "uint256"
    }
   ],
   "stateMutability": "view",
   "type": "function"
  },
  {
   "inputs": [],
   "name": "presaleMint",
   "outputs": [],
   "stateMutability": "payable",
   "type": "function"
  },
  {
   "inputs": [],
   "name": "presaleStarted",
   "outputs": [
    {
     "internalType": "bool",
     "name": "",
     "type": "bool"
    }
   ],
   "stateMutability": "view",
   "type": "function"
  },
  {
   "inputs": [],
   "name": "renounceOwnership",
   "outputs": [],
   "stateMutability": "nonpayable",
   "type": "function"
  },
  {
   "inputs": [
    {
     "internalType": "address",
     "name": "from",
     "type": "address"
    },
    {
     "internalType": "address",
     "name": "to",
     "type": "address"
    },
    {
     "internalType": "uint256",
     "name": "tokenId",
     "type": "uint256"
    }
   ],
   "name": "safeTransferFrom",
   "outputs": [],
   "stateMutability": "nonpayable",
   "type": "function"
  },
  {
   "inputs": [
    {
     "internalType": "address",
     "name": "from",
     "type": "address"
    },
    {
     "internalType": "address",
     "name": "to",
     "type": "address"
    },
    {
     "internalType": "uint256",
     "name": "tokenId",
     "type": "uint256"
    },
    {
     "internalType": "bytes",
     "name": "data",
     "type": "bytes"
    }
   ],
   "name": "safeTransferFrom",
   "outputs": [],
   "stateMutability": "nonpayable",
   "type": "function"
  },
  {
   "inputs": [
    {
     "internalType": "address",
     "name": "operator",
     "type": "address"
    },
    {
     "internalType": "bool",
     "name": "approved",
     "type": "bool"
    }
   ],
   "name": "setApprovalForAll",
   "outputs": [],
   "stateMutability": "nonpayable",
   "type": "function"
  },
  {
   "inputs": [
    {
     "internalType": "bool",
     "name": "val",
     "type": "bool"
    }
   ],
   "name": "setPaused",
   "outputs": [],
   "stateMutability": "nonpayable",
   "type": "function"
  },
  {
   "inputs": [],
   "name": "startPresale",
   "outputs": [],
   "stateMutability": "nonpayable",
   "type": "function"
  },
  {
   "inputs": [
    {
     "internalType": "bytes4",
     "name": "interfaceId",
     "type": "bytes4"
    }
   ],
   "name": "supportsInterface",
   "outputs": [
    {
     "internalType": "bool",
     "name": "",
     "type": "bool"
    }
   ],
   "stateMutability": "view",
   "type": "function"
  },
  {
   "inputs": [],
   "name": "symbol",
   "outputs": [
    {
     "internalType": "string",
     "name": "",
     "type": "string"
    }
   ],
   "stateMutability": "view",
   "type": "function"
  },
  {
   "inputs": [
    {
     "internalType": "uint256",
     "name": "index",
     "type": "uint256"
    }
   ],
   "name": "tokenByIndex",
   "outputs": [
    {
     "internalType": "uint256",
     "name": "",
     "type": "uint256"
    }
   ],
   "stateMutability": "view",
   "type": "function"
  },
  {
   "inputs": [],
   "name": "tokenIds",
   "outputs": [
    {
     "internalType": "uint256",
     "name": "",
     "type": "uint256"
    }
   ],
   "stateMutability": "view",
   "type": "function"
  },
  {
   "inputs": [
    {
     "internalType": "address",
     "name": "owner",
     "type": "address"
    },
    {
     "internalType": "uint256",
     "name": "index",
     "type": "uint256"
    }
   ],
   "name": "tokenOfOwnerByIndex",
   "outputs": [
    {
     "internalType": "uint256",
     "name": "",
     "type": "uint256"
    }
   ],
   "stateMutability": "view",
   "type": "function"
  },
  {
   "inputs": [
    {
     "internalType": "uint256",
     "name": "tokenId",
     "type": "uint256"
    }
   ],
   "name": "tokenURI",
   "outputs": [
    {
     "internalType": "string",
     "name": "",
     "type": "string"
    }
   ],
   "stateMutability": "view",
   "type": "function"
  },
  {
   "inputs": [],
   "name": "totalSupply",
   "outputs": [
    {
     "internalType": "uint256",
     "name": "",
     "type": "uint256"
    }
   ],
   "stateMutability": "view",
   "type": "function"
  },
  {
   "inputs": [
    {
     "internalType": "address",
     "name": "from",
     "type": "address"
    },
    {
     "internalType": "address",
     "name": "to",
     "type": "address"
    },
    {
     "internalType": "uint256",
     "name": "tokenId",
     "type": "uint256"
    }
   ],
   "name": "transferFrom",
   "outputs": [],
   "stateMutability": "nonpayable",
   "type": "function"
  },
  {
   "inputs": [
    {
     "internalType": "address",
     "name": "newOwner",
     "type": "address"
    }
   ],
   "name": "transferOwnership",
   "outputs": [],
   "stateMutability": "nonpayable",
   "type": "function"
  },
  {
   "inputs": [],
   "name": "withdraw",
   "outputs": [],
   "stateMutability": "nonpayable",
   "type": "function"
  },
  {
   "stateMutability": "payable",
   "type": "receive"
  }
 ],
 "bytecode": "0x6080604052662386f26fc10000600c556014600e553480156200002157600080fd5b5060405162004587380380620045878339818101604052810190620000479190620004e9565b6040518060400160405280600b81526020017f43727970746f20446576730000000000000000000000000000000000000000008152506040518060400160405280600281526020017f43440000000000000000000000000000000000000000000000000000000000008152508160009080519060200190620000cb92919062000237565b508060019080519060200190620000e492919062000237565b50505062000107620000fb6200016960201b60201c565b6200017160201b60201c565b81600b90805190602001906200011f92919062000237565b5080601060006101000a81548173ffffffffffffffffffffffffffffffffffffffff021916908373ffffffffffffffffffffffffffffffffffffffff1602179055505050620005b4565b600033905090565b6000600a60009054906101000a900473ffffffffffffffffffffffffffffffffffffffff16905081600a60006101000a81548173ffffffffffffffffffffffffffffffffffffffff021916908373ffffffffffffffffffffffffffffffffffffffff1602179055508173ffffffffffffffffffffffffffffffffffffffff168173ffffffffffffffffffffffffffffffffffffffff167f8be0079c531659141344cd1fd0a4f28419497f9722a3daafe3b4186f6b6457e060405160405180910390a35050565b82805462000245906200057e565b90600052602060002090601f016020900481019282620002695760008555620002b5565b82601f106200028457805160ff1916838001178555620002b5565b82800160010185558215620002b5579182015b82811115620002b457825182559160200191906001019062000297565b5b509050620002c49190620002c8565b5090565b5b80821115620002e3576000816000905550600101620002c9565b5090565b6000604051905090565b600080fd5b600080fd5b600080fd5b600080fd5b6000601f19601f8301169050919050565b7f4e487b7100000000000000000000000000000000000000000000000000000000600052604160045260246000fd5b620003508262000305565b810181811067ffffffffffffffff8211171562000372576200037162000316565b5b80604052505050565b600062000387620002e7565b905062000395828262000345565b919050565b600067ffffffffffffffff821115620003b857620003b762000316565b5b620003c38262000305565b9050602081019050919050565b60005b83811015620003f0578082015181840152602081019050620003d3565b8381111562000400576000848401525b50505050565b60006200041d62000417846200039a565b6200037b565b9050828152602081018484840111156200043c576200043b62000300565b5b62000449848285620003d0565b509392505050565b600082601f830112620004695762000468620002fb565b5b81516200047b84826020860162000406565b91505092915050565b600073ffffffffffffffffffffffffffffffffffffffff82169050919050565b6000620004b18262000484565b9050919050565b620004c381620004a4565b8114620004cf57600080fd5b50565b600081519050620004e381620004b8565b92915050565b60008060408385031215620005035762000502620002f1565b5b600083015167ffffffffffffffff811115620005245762000523620002f6565b5b620005328582860162000451565b92505060206200054585828601620004d2565b9150509250929050565b7f4e487b7100000000000000000000000000000000000000000000000000000000600052602260045260246000fd5b600060028204905060018216806200059757607f821691505b60208210811415620005ae57620005ad6200054f565b5b50919050565b613fc380620005c46000396000f3fe6080604052600436106101d15760003560e01c80634f6ccce7116100f75780638da5cb5b11610095578063c87b56dd11610064578063c87b56dd1461061a578063e580b2b014610657578063e985e9c514610682578063f2fde38b146106bf576101d8565b80638da5cb5b1461057257806395d89b411461059d578063a22cb465146105c8578063b88d4fde146105f1576101d8565b80636352211e116100d15780636352211e146104b657806370a08231146104f3578063714cff5614610530578063715018a61461055b576101d8565b80634f6ccce71461044457806359533d6c146104815780635f7696211461048b576101d8565b806316c38b3c1161016f57806323b872dd1161013e57806323b872dd1461039e5780632f745c59146103c75780633ccfd60b1461040457806342842e0e1461041b576101d8565b806316c38b3c146102f457806316c61ccc1461031d57806318160ddd14610348578063235b6ea114610373576101d8565b806306fdde03116101ab57806306fdde0314610259578063081812fc14610284578063095ea7b3146102c15780631249c58b146102ea576101d8565b806301ffc9a7146101da57806304549d6f1461021757806304c98b2b14610242576101d8565b366101d857005b005b3480156101e657600080fd5b5061020160048036038101906101fc9190612a89565b6106e8565b60405161020e9190612ad1565b60405180910390f35b34801561022357600080fd5b5061022c610762565b6040516102399190612ad1565b60405180910390f35b34801561024e57600080fd5b50610257610775565b005b34801561026557600080fd5b5061026e6107ae565b60405161027b9190612b85565b60405180910390f35b34801561029057600080fd5b506102ab60048036038101906102a69190612bdd565b610840565b6040516102b89190612c4b565b60405180910390f35b3480156102cd57600080fd5b506102e860048036038101906102e39190612c92565b610886565b005b6102f261099e565b005b34801561030057600080fd5b5061031b60048036038101906103169190612cfe565b610afe565b005b34801561032957600080fd5b50610332610b23565b60405161033f9190612ad1565b60405180910390f35b34801561035457600080fd5b5061035d610b36565b60405161036a9190612d3a565b60405180910390f35b34801561037f57600080fd5b50610388610b43565b6040516103959190612d3a565b60405180910390f35b3480156103aa57600080fd5b506103c560048036038101906103c09190612d55565b610b49565b005b3480156103d357600080fd5b506103ee60048036038101906103e99190612c92565b610ba9565b6040516103fb9190612d3a565b60405180910390f35b34801561041057600080fd5b50610419610c4e565b005b34801561042757600080fd5b50610442600480360381019061043d9190612d55565b610d18565b005b34801561045057600080fd5b5061046b60048036038101906104669190612bdd565b610d38565b6040516104789190612d3a565b60405180910390f35b610489610da9565b005b34801561049757600080fd5b506104a0610ff2565b6040516104ad9190612d3a565b60405180910390f35b3480156104c257600080fd5b506104dd60048036038101906104d89190612bdd565b610ff8565b6040516104ea9190612c4b565b60405180910390f35b3480156104ff57600080fd5b5061051a60048036038101906105159190612da8565b61107f565b6040516105279190612d3a565b60405180910390f35b34801561053c57600080fd5b50610545611137565b6040516105529190612d3a565b60405180910390f35b34801561056757600080fd5b5061057061113d565b005b34801561057e57600080fd5b50610587611151565b6040516105949190612c4b565b60405180910390f35b3480156105a957600080fd5b506105b261117b565b6040516105bf9190612b85565b60405180910390f35b3480156105d457600080fd5b506105ef60048036038101906105ea9190612dd5565b61120d565b005b3480156105fd57600080fd5b5061061860048036038101906106139190612f4a565b611223565b005b34801561062657600080fd5b50610641600480360381019061063c9190612bdd565b611285565b60405161064e9190612b85565b60405180910390f35b34801561066357600080fd5b5061066c6112ed565b6040516106799190612d3a565b60405180910390f35b34801561068e57600080fd5b506106a960048036038101906106a49190612fcd565b6112f3565b6040516106b69190612ad1565b60405180910390f35b3480156106cb57600080fd5b506106e660048036038101906106e19190612da8565b611387565b005b60007f780e9d63000000000000000000000000000000000000000000000000000000007bffffffffffffffffffffffffffffffffffffffffffffffffffffffff1916827bffffffffffffffffffffffffffffffffffffffffffffffffffffffff1916148061075b575061075a8261140b565b5b9050919050565b601060149054906101000a900460ff1681565b61077d6114ed565b6001601060146101000a81548160ff02191690831515021790555061012c426107a6919061303c565b601181905550565b6060600080546107bd906130c1565b80601f01602080910402602001604051908101604052809291908181526020018280546107e9906130c1565b80156108365780601f1061080b57610100808354040283529160200191610836565b820191906000526020600020905b81548152906001019060200180831161081957829003601f168201915b5050505050905090565b600061084b8261156b565b6004600083815260200190815260200160002060009054906101000a900473ffffffffffffffffffffffffffffffffffffffff169050919050565b600061089182610ff8565b90508073ffffffffffffffffffffffffffffffffffffffff168373ffffffffffffffffffffffffffffffffffffffff161415610902576040517f08c379a00000000000000000000000000000000000000000000000000000000081526004016108f990613165565b60405180910390fd5b8073ffffffffffffffffffffffffffffffffffffffff166109216115b6565b73ffffffffffffffffffffffffffffffffffffffff161480610950575061094f8161094a6115b6565b6112f3565b5b61098f576040517f08c379a0000000000000000000000000000000000000000000000000000000008152600401610986906131f7565b60405180910390fd5b61099983836115be565b505050565b600d60009054906101000a900460ff16156109ee576040517f08c379a00000000000000000000000000000000000000000000000000000000081526004016109e590613263565b60405180910390fd5b601060149054906101000a900460ff168015610a0c57506011544210155b610a4b576040517f08c379a0000000000000000000000000000000000000000000000000000000008152600401610a42906132cf565b60405180910390fd5b600e54600f5410610a91576040517f08c379a0000000000000000000000000000000000000000000000000000000008152600401610a8890613361565b60405180910390fd5b600c54341015610ad6576040517f08c379a0000000000000000000000000000000000000000000000000000000008152600401610acd906133cd565b60405180910390fd5b6001600f6000828254610ae9919061303c565b92505081905550610afc33600f54611677565b565b610b066114ed565b80600d60006101000a81548160ff02191690831515021790555050565b600d60009054906101000a900460ff1681565b6000600880549050905090565b600c5481565b610b5a610b546115b6565b82611695565b610b99576040517f08c379a0000000000000000000000000000000000000000000000000000000008152600401610b909061345f565b60405180910390fd5b610ba483838361172a565b505050565b6000610bb48361107f565b8210610bf5576040517f08c379a0000000000000000000000000000000000000000000000000000000008152600401610bec906134f1565b60405180910390fd5b600660008473ffffffffffffffffffffffffffffffffffffffff1673ffffffffffffffffffffffffffffffffffffffff168152602001908152602001600020600083815260200190815260200160002054905092915050565b610c566114ed565b6000610c60611151565b9050600047905060008273ffffffffffffffffffffffffffffffffffffffff1682604051610c8d90613542565b60006040518083038185875af1925050503d8060008114610cca576040519150601f19603f3d011682016040523d82523d6000602084013e610ccf565b606091505b5050905080610d13576040517f08c379a0000000000000000000000000000000000000000000000000000000008152600401610d0a906135a3565b60405180910390fd5b505050565b610d3383838360405180602001604052806000815250611223565b505050565b6000610d42610b36565b8210610d83576040517f08c379a0000000000000000000000000000000000000000000000000000000008152600401610d7a90613635565b60405180910390fd5b60088281548110610d9757610d96613655565b5b90600052602060002001549050919050565b600d60009054906101000a900460ff1615610df9576040517f08c379a0000000000000000000000000000000000000000000000000000000008152600401610df090613263565b60405180910390fd5b601060149054906101000a900460ff168015610e16575060115442105b610e55576040517f08c379a0000000000000000000000000000000000000000000000000000000008152600401610e4c906136d0565b60405180910390fd5b601060009054906101000a900473ffffffffffffffffffffffffffffffffffffffff1673ffffffffffffffffffffffffffffffffffffffff166306c933d8336040518263ffffffff1660e01b8152600401610eb09190612c4b565b60206040518083038186803b158015610ec857600080fd5b505afa158015610edc573d6000803e3d6000fd5b505050506040513d601f19601f82011682018060405250810190610f009190613705565b610f3f576040517f08c379a0000000000000000000000000000000000000000000000000000000008152600401610f369061377e565b60405180910390fd5b600e54600f5410610f85576040517f08c379a0000000000000000000000000000000000000000000000000000000008152600401610f7c90613810565b60405180910390fd5b600c54341015610fca576040517f08c379a0000000000000000000000000000000000000000000000000000000008152600401610fc1906133cd565b60405180910390fd5b6001600f6000828254610fdd919061303c565b92505081905550610ff033600f54611677565b565b600e5481565b60008061100483611a24565b9050600073ffffffffffffffffffffffffffffffffffffffff168173ffffffffffffffffffffffffffffffffffffffff161415611076576040517f08c379a000000000000000000000000000000000000000000000000000000000815260040161106d9061387c565b60405180910390fd5b80915050919050565b60008073ffffffffffffffffffffffffffffffffffffffff168273ffffffffffffffffffffffffffffffffffffffff1614156110f0576040517f08c379a00000000000000000000000000000000000000000000000000000000081526004016110e79061390e565b60405180910390fd5b600360008373ffffffffffffffffffffffffffffffffffffffff1673ffffffffffffffffffffffffffffffffffffffff168152602001908152602001600020549050919050565b600f5481565b6111456114ed565b61114f6000611a61565b565b6000600a60009054906101000a900473ffffffffffffffffffffffffffffffffffffffff16905090565b60606001805461118a906130c1565b80601f01602080910402602001604051908101604052809291908181526020018280546111b6906130c1565b80156112035780601f106111d857610100808354040283529160200191611203565b820191906000526020600020905b8154815290600101906020018083116111e657829003601f168201915b5050505050905090565b61121f6112186115b6565b8383611b27565b5050565b61123461122e6115b6565b83611695565b611273576040517f08c379a000000000000000000000000000000000000000000000000000000000815260040161126a9061345f565b60405180910390fd5b61127f84848484611c94565b50505050565b60606112908261156b565b600061129a611cf0565b905060008151116112ba57604051806020016040528060008152506112e5565b806112c484611d82565b6040516020016112d592919061396a565b6040516020818303038152906040525b915050919050565b60115481565b6000600560008473ffffffffffffffffffffffffffffffffffffffff1673ffffffffffffffffffffffffffffffffffffffff16815260200190815260200160002060008373ffffffffffffffffffffffffffffffffffffffff1673ffffffffffffffffffffffffffffffffffffffff16815260200190815260200160002060009054906101000a900460ff16905092915050565b61138f6114ed565b600073ffffffffffffffffffffffffffffffffffffffff168173ffffffffffffffffffffffffffffffffffffffff1614156113ff576040517f08c379a00000000000000000000000000000000000000000000000000000000081526004016113f690613a00565b60405180910390fd5b61140881611a61565b50565b60007f80ac58cd000000000000000000000000000000000000000000000000000000007bffffffffffffffffffffffffffffffffffffffffffffffffffffffff1916827bffffffffffffffffffffffffffffffffffffffffffffffffffffffff191614806114d657507f5b5e139f000000000000000000000000000000000000000000000000000000007bffffffffffffffffffffffffffffffffffffffffffffffffffffffff1916827bffffffffffffffffffffffffffffffffffffffffffffffffffffffff1916145b806114e657506114e582611e5a565b5b9050919050565b6114f56115b6565b73ffffffffffffffffffffffffffffffffffffffff16611513611151565b73ffffffffffffffffffffffffffffffffffffffff1614611569576040517f08c379a000000000000000000000000000000000000000000000000000000000815260040161156090613a6c565b60405180910390fd5b565b61157481611ec4565b6115b3576040517f08c379a00000000000000000000000000000000000000000000000000000000081526004016115aa9061387c565b60405180910390fd5b50565b600033905090565b816004600083815260200190815260200160002060006101000a81548173ffffffffffffffffffffffffffffffffffffffff021916908373ffffffffffffffffffffffffffffffffffffffff160217905550808273ffffffffffffffffffffffffffffffffffffffff1661163183610ff8565b73ffffffffffffffffffffffffffffffffffffffff167f8c5be1e5ebec7d5bd14f71427d1e84f3dd0314c0f7b2291e5b200ac8c7c3b92560405160405180910390a45050565b611691828260405180602001604052806000815250611f05565b5050565b6000806116a183610ff8565b90508073ffffffffffffffffffffffffffffffffffffffff168473ffffffffffffffffffffffffffffffffffffffff1614806116e357506116e281856112f3565b5b8061172157508373ffffffffffffffffffffffffffffffffffffffff1661170984610840565b73ffffffffffffffffffffffffffffffffffffffff16145b91505092915050565b8273ffffffffffffffffffffffffffffffffffffffff1661174a82610ff8565b73ffffffffffffffffffffffffffffffffffffffff16146117a0576040517f08c379a000000000000000000000000000000000000000000000000000000000815260040161179790613afe565b60405180910390fd5b600073ffffffffffffffffffffffffffffffffffffffff168273ffffffffffffffffffffffffffffffffffffffff161415611810576040517f08c379a000000000000000000000000000000000000000000000000000000000815260040161180790613b90565b60405180910390fd5b61181d8383836001611f60565b8273ffffffffffffffffffffffffffffffffffffffff1661183d82610ff8565b73ffffffffffffffffffffffffffffffffffffffff1614611893576040517f08c379a000000000000000000000000000000000000000000000000000000000815260040161188a90613afe565b60405180910390fd5b6004600082815260200190815260200160002060006101000a81549073ffffffffffffffffffffffffffffffffffffffff02191690556001600360008573ffffffffffffffffffffffffffffffffffffffff1673ffffffffffffffffffffffffffffffffffffffff168152602001908152602001600020600082825403925050819055506001600360008473ffffffffffffffffffffffffffffffffffffffff1673ffffffffffffffffffffffffffffffffffffffff16815260200190815260200160002060008282540192505081905550816002600083815260200190815260200160002060006101000a81548173ffffffffffffffffffffffffffffffffffffffff021916908373ffffffffffffffffffffffffffffffffffffffff160217905550808273ffffffffffffffffffffffffffffffffffffffff168473ffffffffffffffffffffffffffffffffffffffff167fddf252ad1be2c89b69c2b068fc378daa952ba7f163c4a11628f55a4df523b3ef60405160405180910390a4611a1f83838360016120c0565b505050565b60006002600083815260200190815260200160002060009054906101000a900473ffffffffffffffffffffffffffffffffffffffff169050919050565b6000600a60009054906101000a900473ffffffffffffffffffffffffffffffffffffffff16905081600a60006101000a81548173ffffffffffffffffffffffffffffffffffffffff021916908373ffffffffffffffffffffffffffffffffffffffff1602179055508173ffffffffffffffffffffffffffffffffffffffff168173ffffffffffffffffffffffffffffffffffffffff167f8be0079c531659141344cd1fd0a4f28419497f9722a3daafe3b4186f6b6457e060405160405180910390a35050565b8173ffffffffffffffffffffffffffffffffffffffff168373ffffffffffffffffffffffffffffffffffffffff161415611b96576040517f08c379a0000000000000000000000000000000000000000000000000000000008152600401611b8d90613bfc565b60405180910390fd5b80600560008573ffffffffffffffffffffffffffffffffffffffff1673ffffffffffffffffffffffffffffffffffffffff16815260200190815260200160002060008473ffffffffffffffffffffffffffffffffffffffff1673ffffffffffffffffffffffffffffffffffffffff16815260200190815260200160002060006101000a81548160ff0219169083151502179055508173ffffffffffffffffffffffffffffffffffffffff168373ffffffffffffffffffffffffffffffffffffffff167f17307eab39ab6107e8899845ad3d59bd9653f200f220920489ca2b5937696c3183604051611c879190612ad1565b60405180910390a3505050565b611c9f84848461172a565b611cab848484846120c6565b611cea576040517f08c379a0000000000000000000000000000000000000000000000000000000008152600401611ce190613c8e565b60405180910390fd5b50505050565b6060600b8054611cff906130c1565b80601f0160208091040260200160405190810160405280929190818152602001828054611d2b906130c1565b8015611d785780601f10611d4d57610100808354040283529160200191611d78565b820191906000526020600020905b815481529060010190602001808311611d5b57829003601f168201915b5050505050905090565b606060006001611d918461225d565b01905060008167ffffffffffffffff811115611db057611daf612e1f565b5b6040519080825280601f01601f191660200182016040528015611de25781602001600182028036833780820191505090505b509050600082602001820190505b600115611e4f578080600190039150507f3031323334353637383961626364656600000000000000000000000000000000600a86061a8153600a8581611e3957611e38613cae565b5b0494506000851415611e4a57611e4f565b611df0565b819350505050919050565b60007f01ffc9a7000000000000000000000000000000000000000000000000000000007bffffffffffffffffffffffffffffffffffffffffffffffffffffffff1916827bffffffffffffffffffffffffffffffffffffffffffffffffffffffff1916149050919050565b60008073ffffffffffffffffffffffffffffffffffffffff16611ee683611a24565b73ffffffffffffffffffffffffffffffffffffffff1614159050919050565b611f0f83836123b0565b611f1c60008484846120c6565b611f5b576040517f08c379a0000000000000000000000000000000000000000000000000000000008152600401611f5290613c8e565b60405180910390fd5b505050565b611f6c848484846125ce565b6001811115611fb0576040517f08c379a0000000000000000000000000000000000000000000000000000000008152600401611fa790613d4f565b60405180910390fd5b6000829050600073ffffffffffffffffffffffffffffffffffffffff168573ffffffffffffffffffffffffffffffffffffffff161415611ff857611ff3816126f4565b612037565b8373ffffffffffffffffffffffffffffffffffffffff168573ffffffffffffffffffffffffffffffffffffffff161461203657612035858261273d565b5b5b600073ffffffffffffffffffffffffffffffffffffffff168473ffffffffffffffffffffffffffffffffffffffff16141561207a57612075816128aa565b6120b9565b8473ffffffffffffffffffffffffffffffffffffffff168473ffffffffffffffffffffffffffffffffffffffff16146120b8576120b7848261297b565b5b5b5050505050565b50505050565b60006120e78473ffffffffffffffffffffffffffffffffffffffff166129fa565b15612250578373ffffffffffffffffffffffffffffffffffffffff1663150b7a026121106115b6565b8786866040518563ffffffff1660e01b81526004016121329493929190613dc4565b602060405180830381600087803b15801561214c57600080fd5b505af192505050801561217d57506040513d601f19601f8201168201806040525081019061217a9190613e25565b60015b612200573d80600081146121ad576040519150601f19603f3d011682016040523d82523d6000602084013e6121b2565b606091505b506000815114156121f8576040517f08c379a00000000000000000000000000000000000000000000000000000000081526004016121ef90613c8e565b60405180910390fd5b805181602001fd5b63150b7a0260e01b7bffffffffffffffffffffffffffffffffffffffffffffffffffffffff1916817bffffffffffffffffffffffffffffffffffffffffffffffffffffffff191614915050612255565b600190505b949350505050565b600080600090507a184f03e93ff9f4daa797ed6e38ed64bf6a1f01000000000000000083106122bb577a184f03e93ff9f4daa797ed6e38ed64bf6a1f01000000000000000083816122b1576122b0613cae565b5b0492506040810190505b6d04ee2d6d415b85acef810000000083106122f8576d04ee2d6d415b85acef810000000083816122ee576122ed613cae565b5b0492506020810190505b662386f26fc10000831061232757662386f26fc10000838161231d5761231c613cae565b5b0492506010810190505b6305f5e1008310612350576305f5e100838161234657612345613cae565b5b0492506008810190505b612710831061237557612710838161236b5761236a613cae565b5b0492506004810190505b60648310612398576064838161238e5761238d613cae565b5b0492506002810190505b600a83106123a7576001810190505b80915050919050565b600073ffffffffffffffffffffffffffffffffffffffff168273ffffffffffffffffffffffffffffffffffffffff161415612420576040517f08c379a000000000000000000000000000000000000000000000000000000000815260040161241790613e9e565b60405180910390fd5b61242981611ec4565b15612469576040517f08c379a000000000000000000000000000000000000000000000000000000000815260040161246090613f0a565b60405180910390fd5b612477600083836001611f60565b61248081611ec4565b156124c0576040517f08c379a00000000000000000000000000000000000000000000000000000000081526004016124b790613f0a565b60405180910390fd5b6001600360008473ffffffffffffffffffffffffffffffffffffffff1673ffffffffffffffffffffffffffffffffffffffff16815260200190815260200160002060008282540192505081905550816002600083815260200190815260200160002060006101000a81548173ffffffffffffffffffffffffffffffffffffffff021916908373ffffffffffffffffffffffffffffffffffffffff160217905550808273ffffffffffffffffffffffffffffffffffffffff16600073ffffffffffffffffffffffffffffffffffffffff167fddf252ad1be2c89b69c2b068fc378daa952ba7f163c4a11628f55a4df523b3ef60405160405180910390a46125ca6000838360016120c0565b5050565b60018111156126ee57600073ffffffffffffffffffffffffffffffffffffffff168473ffffffffffffffffffffffffffffffffffffffff16146126625780600360008673ffffffffffffffffffffffffffffffffffffffff1673ffffffffffffffffffffffffffffffffffffffff168152602001908152602001600020600082825461265a9190613f2a565b925050819055505b600073ffffffffffffffffffffffffffffffffffffffff168373ffffffffffffffffffffffffffffffffffffffff16146126ed5780600360008573ffffffffffffffffffffffffffffffffffffffff1673ffffffffffffffffffffffffffffffffffffffff16815260200190815260200160002060008282546126e5919061303c565b925050819055505b5b50505050565b6008805490506009600083815260200190815260200160002081905550600881908060018154018082558091505060019003906000526020600020016000909190919091505550565b6000600161274a8461107f565b6127549190613f2a565b9050600060076000848152602001908152602001600020549050818114612839576000600660008673ffffffffffffffffffffffffffffffffffffffff1673ffffffffffffffffffffffffffffffffffffffff168152602001908152602001600020600084815260200190815260200160002054905080600660008773ffffffffffffffffffffffffffffffffffffffff1673ffffffffffffffffffffffffffffffffffffffff168152602001908152602001600020600084815260200190815260200160002081905550816007600083815260200190815260200160002081905550505b6007600084815260200190815260200160002060009055600660008573ffffffffffffffffffffffffffffffffffffffff1673ffffffffffffffffffffffffffffffffffffffff16815260200190815260200160002060008381526020019081526020016000206000905550505050565b600060016008805490506128be9190613f2a565b90506000600960008481526020019081526020016000205490506000600883815481106128ee576128ed613655565b5b9060005260206000200154905080600883815481106129105761290f613655565b5b90600052602060002001819055508160096000838152602001908152602001600020819055506009600085815260200190815260200160002060009055600880548061295f5761295e613f5e565b5b6001900381819060005260206000200160009055905550505050565b60006129868361107f565b905081600660008573ffffffffffffffffffffffffffffffffffffffff1673ffffffffffffffffffffffffffffffffffffffff168152602001908152602001600020600083815260200190815260200160002081905550806007600084815260200190815260200160002081905550505050565b6000808273ffffffffffffffffffffffffffffffffffffffff163b119050919050565b6000604051905090565b600080fd5b600080fd5b60007fffffffff0000000000000000000000000000000000000000000000000000000082169050919050565b612a6681612a31565b8114612a7157600080fd5b50565b600081359050612a8381612a5d565b92915050565b600060208284031215612a9f57612a9e612a27565b5b6000612aad84828501612a74565b91505092915050565b60008115159050919050565b612acb81612ab6565b82525050565b6000602082019050612ae66000830184612ac2565b92915050565b600081519050919050565b600082825260208201905092915050565b60005b83811015612b26578082015181840152602081019050612b0b565b83811115612b35576000848401525b50505050565b6000601f19601f8301169050919050565b6000612b5782612aec565b612b618185612af7565b9350612b71818560208601612b08565b612b7a81612b3b565b840191505092915050565b60006020820190508181036000830152612b9f8184612b4c565b905092915050565b6000819050919050565b612bba81612ba7565b8114612bc557600080fd5b50565b600081359050612bd781612bb1565b92915050565b600060208284031215612bf357612bf2612a27565b5b6000612c0184828501612bc8565b91505092915050565b600073ffffffffffffffffffffffffffffffffffffffff82169050919050565b6000612c3582612c0a565b9050919050565b612c4581612c2a565b82525050565b6000602082019050612c606000830184612c3c565b92915050565b612c6f81612c2a565b8114612c7a57600080fd5b50565b600081359050612c8c81612c66565b92915050565b60008060408385031215612ca957612ca8612a27565b5b6000612cb785828601612c7d565b9250506020612cc885828601612bc8565b9150509250929050565b612cdb81612ab6565b8114612ce657600080fd5b50565b600081359050612cf881612cd2565b92915050565b600060208284031215612d1457612d13612a27565b5b6000612d2284828501612ce9565b91505092915050565b612d3481612ba7565b82525050565b6000602082019050612d4f6000830184612d2b565b92915050565b600080600060608486031215612d6e57612d6d612a27565b5b6000612d7c86828701612c7d565b9350506020612d8d86828701612c7d565b9250506040612d9e86828701612bc8565b9150509250925092565b600060208284031215612dbe57612dbd612a27565b5b6000612dcc84828501612c7d565b91505092915050565b60008060408385031215612dec57612deb612a27565b5b6000612dfa85828601612c7d565b9250506020612e0b85828601612ce9565b9150509250929050565b600080fd5b600080fd5b7f4e487b7100000000000000000000000000000000000000000000000000000000600052604160045260246000fd5b612e5782612b3b565b810181811067ffffffffffffffff82111715612e7657612e75612e1f565b5b80604052505050565b6000612e89612a1d565b9050612e958282612e4e565b919050565b600067ffffffffffffffff821115612eb557612eb4612e1f565b5b612ebe82612b3b565b9050602081019050919050565b82818337600083830152505050565b6000612eed612ee884612e9a565b612e7f565b905082815260208101848484011115612f0957612f08612e1a565b5b612f14848285612ecb565b509392505050565b600082601f830112612f3157612f30612e15565b5b8135612f41848260208601612eda565b91505092915050565b60008060008060808587031215612f6457612f63612a27565b5b6000612f7287828801612c7d565b9450506020612f8387828801612c7d565b9350506040612f9487828801612bc8565b925050606085013567ffffffffffffffff811115612fb557612fb4612a2c565b5b612fc187828801612f1c565b91505092959194509250565b60008060408385031215612fe457612fe3612a27565b5b6000612ff285828601612c7d565b925050602061300385828601612c7d565b9150509250929050565b7f4e487b7100000000000000000000000000000000000000000000000000000000600052601160045260246000fd5b600061304782612ba7565b915061305283612ba7565b9250827fffffffffffffffffffffffffffffffffffffffffffffffffffffffffffffffff038211156130875761308661300d565b5b828201905092915050565b7f4e487b7100000000000000000000000000000000000000000000000000000000600052602260045260246000fd5b600060028204905060018216806130d957607f821691505b602082108114156130ed576130ec613092565b5b50919050565b7f4552433732313a20617070726f76616c20746f2063757272656e74206f776e6560008201527f7200000000000000000000000000000000000000000000000000000000000000602082015250565b600061314f602183612af7565b915061315a826130f3565b604082019050919050565b6000602082019050818103600083015261317e81613142565b9050919050565b7f4552433732313a20617070726f76652063616c6c6572206973206e6f7420746f60008201527f6b656e206f776e6572206f7220617070726f76656420666f7220616c6c000000602082015250565b60006131e1603d83612af7565b91506131ec82613185565b604082019050919050565b60006020820190508181036000830152613210816131d4565b9050919050565b7f436f6e74726163742063757272656e746c792070617573656400000000000000600082015250565b600061324d601983612af7565b915061325882613217565b602082019050919050565b6000602082019050818103600083015261327c81613240565b9050919050565b7f50726573616c6520686173206e6f7420656e6465642079657400000000000000600082015250565b60006132b9601983612af7565b91506132c482613283565b602082019050919050565b600060208201905081810360008301526132e8816132ac565b9050919050565b7f457863656564206d6178696d756d2043727970746f204465767320737570706c60008201527f7900000000000000000000000000000000000000000000000000000000000000602082015250565b600061334b602183612af7565b9150613356826132ef565b604082019050919050565b6000602082019050818103600083015261337a8161333e565b9050919050565b7f45746865722073656e74206973206e6f7420636f727265637400000000000000600082015250565b60006133b7601983612af7565b91506133c282613381565b602082019050919050565b600060208201905081810360008301526133e6816133aa565b9050919050565b7f4552433732313a2063616c6c6572206973206e6f7420746f6b656e206f776e6560008201527f72206f7220617070726f76656400000000000000000000000000000000000000602082015250565b6000613449602d83612af7565b9150613454826133ed565b604082019050919050565b600060208201905081810360008301526134788161343c565b9050919050565b7f455243373231456e756d657261626c653a206f776e657220696e646578206f7560008201527f74206f6620626f756e6473000000000000000000000000000000000000000000602082015250565b60006134db602b83612af7565b91506134e68261347f565b604082019050919050565b6000602082019050818103600083015261350a816134ce565b9050919050565b600081905092915050565b50565b600061352c600083613511565b91506135378261351c565b600082019050919050565b600061354d8261351f565b9150819050919050565b7f4661696c656420746f2073656e64204574686572000000000000000000000000600082015250565b600061358d601483612af7565b915061359882613557565b602082019050919050565b600060208201905081810360008301526135bc81613580565b9050919050565b7f455243373231456e756d657261626c653a20676c6f62616c20696e646578206f60008201527f7574206f6620626f756e64730000000000000000000000000000000000000000602082015250565b600061361f602c83612af7565b915061362a826135c3565b604082019050919050565b6000602082019050818103600083015261364e81613612565b9050919050565b7f4e487b7100000000000000000000000000000000000000000000000000000000600052603260045260246000fd5b7f50726573616c65206973206e6f742072756e6e696e6700000000000000000000600082015250565b60006136ba601683612af7565b91506136c582613684565b602082019050919050565b600060208201905081810360008301526136e9816136ad565b9050919050565b6000815190506136ff81612cd2565b92915050565b60006020828403121561371b5761371a612a27565b5b6000613729848285016136f0565b91505092915050565b7f596f7520617265206e6f742077686974656c6973746564000000000000000000600082015250565b6000613768601783612af7565b915061377382613732565b602082019050919050565b600060208201905081810360008301526137978161375b565b9050919050565b7f4578636565646564206d6178696d756d2043727970746f20446576732073757060008201527f706c790000000000000000000000000000000000000000000000000000000000602082015250565b60006137fa602383612af7565b91506138058261379e565b604082019050919050565b60006020820190508181036000830152613829816137ed565b9050919050565b7f4552433732313a20696e76616c696420746f6b656e2049440000000000000000600082015250565b6000613866601883612af7565b915061387182613830565b602082019050919050565b6000602082019050818103600083015261389581613859565b9050919050565b7f4552433732313a2061646472657373207a65726f206973206e6f74206120766160008201527f6c6964206f776e65720000000000000000000000000000000000000000000000602082015250565b60006138f8602983612af7565b91506139038261389c565b604082019050919050565b60006020820190508181036000830152613927816138eb565b9050919050565b600081905092915050565b600061394482612aec565b61394e818561392e565b935061395e818560208601612b08565b80840191505092915050565b60006139768285613939565b91506139828284613939565b91508190509392505050565b7f4f776e61626c653a206e6577206f776e657220697320746865207a65726f206160008201527f6464726573730000000000000000000000000000000000000000000000000000602082015250565b60006139ea602683612af7565b91506139f58261398e565b604082019050919050565b60006020820190508181036000830152613a19816139dd565b9050919050565b7f4f776e61626c653a2063616c6c6572206973206e6f7420746865206f776e6572600082015250565b6000613a56602083612af7565b9150613a6182613a20565b602082019050919050565b60006020820190508181036000830152613a8581613a49565b9050919050565b7f4552433732313a207472616e736665722066726f6d20696e636f72726563742060008201527f6f776e6572000000000000000000000000000000000000000000000000000000602082015250565b6000613ae8602583612af7565b9150613af382613a8c565b604082019050919050565b60006020820190508181036000830152613b1781613adb565b9050919050565b7f4552433732313a207472616e7366657220746f20746865207a65726f2061646460008201527f7265737300000000000000000000000000000000000000000000000000000000602082015250565b6000613b7a602483612af7565b9150613b8582613b1e565b604082019050919050565b60006020820190508181036000830152613ba981613b6d565b9050919050565b7f4552433732313a20617070726f766520746f2063616c6c657200000000000000600082015250565b6000613be6601983612af7565b9150613bf182613bb0565b602082019050919050565b60006020820190508181036000830152613c1581613bd9565b9050919050565b7f4552433732313a207472616e7366657220746f206e6f6e20455243373231526560008201527f63656976657220696d706c656d656e7465720000000000000000000000000000602082015250565b6000613c78603283612af7565b9150613c8382613c1c565b604082019050919050565b60006020820190508181036000830152613ca781613c6b565b9050919050565b7f4e487b7100000000000000000000000000000000000000000000000000000000600052601260045260246000fd5b7f455243373231456e756d657261626c653a20636f6e736563757469766520747260008201527f616e7366657273206e6f7420737570706f727465640000000000000000000000602082015250565b6000613d39603583612af7565b9150613d4482613cdd565b604082019050919050565b60006020820190508181036000830152613d6881613d2c565b9050919050565b600081519050919050565b600082825260208201905092915050565b6000613d9682613d6f565b613da08185613d7a565b9350613db0818560208601612b08565b613db981612b3b565b840191505092915050565b6000608082019050613dd96000830187612c3c565b613de66020830186612c3c565b613df36040830185612d2b565b8181036060830152613e058184613d8b565b905095945050505050565b600081519050613e1f81612a5d565b92915050565b600060208284031215613e3b57613e3a612a27565b5b6000613e4984828501613e10565b91505092915050565b7f4552433732313a206d696e7420746f20746865207a65726f2061646472657373600082015250565b6000613e88602083612af7565b9150613e9382613e52565b602082019050919050565b60006020820190508181036000830152613eb781613e7b565b9050919050565b7f4552433732313a20746f6b656e20616c7265616479206d696e74656400000000600082015250565b6000613ef4601c83612af7565b9150613eff82613ebe565b602082019050919050565b60006020820190508181036000830152613f2381613ee7565b9050919050565b6000613f3582612ba7565b9150613f4083612ba7565b925082821015613f5357613f5261300d565b5b828203905092915050565b7f4e487b7100000000000000000000000000000000000000000000000000000000600052603160045260246000fdfea26469706673582212206f038ff0794f85c26e78e79c40d1e99b83e739e072ac079684d60afea68e5bec64736f6c63430008090033",
 "linkReferences": {},
 "deployedLinkReferences": {}
}